{
  "_format": "hh-sol-artifact-1",
  "contractName": "NotDrop",
  "sourceName": "contracts/NotDrop.sol",
  "abi": [
    {
      "anonymous": false,
      "inputs": [
        {
          "components": [
            {
              "internalType": "address",
              "name": "contractAddress",
              "type": "address"
            },
            {
              "internalType": "uint256",
              "name": "amount",
              "type": "uint256"
            },
            {
              "internalType": "enum NotDrop.AirDropType",
              "name": "airDropType",
              "type": "uint8"
            },
            {
              "internalType": "uint256",
              "name": "startTime",
              "type": "uint256"
            },
            {
              "internalType": "uint256",
              "name": "endTime",
              "type": "uint256"
            },
            {
              "internalType": "uint256",
              "name": "id",
              "type": "uint256"
            },
            {
              "internalType": "uint256",
              "name": "maxNumber",
              "type": "uint256"
            },
            {
              "internalType": "address",
              "name": "requirementAddress",
              "type": "address"
            },
            {
              "internalType": "uint256",
              "name": "minimumAmount",
              "type": "uint256"
            },
            {
              "internalType": "enum NotDrop.AirDropRequirement",
              "name": "requirement",
              "type": "uint8"
            }
          ],
          "indexed": false,
          "internalType": "struct NotDrop.AirDropToken",
          "name": "token",
          "type": "tuple"
        },
        {
          "indexed": true,
          "internalType": "address",
          "name": "creatorAddress",
          "type": "address"
        },
        {
          "indexed": true,
          "internalType": "address",
          "name": "contractAddress",
          "type": "address"
        },
        {
          "indexed": false,
          "internalType": "uint256",
          "name": "tokenId",
          "type": "uint256"
        }
      ],
      "name": "AirDropTokenCreated",
      "type": "event"
    },
    {
      "anonymous": false,
      "inputs": [
        {
          "indexed": true,
          "internalType": "address",
          "name": "previousOwner",
          "type": "address"
        },
        {
          "indexed": true,
          "internalType": "address",
          "name": "newOwner",
          "type": "address"
        }
      ],
      "name": "OwnershipTransferred",
      "type": "event"
    },
    {
      "anonymous": false,
      "inputs": [
        {
          "indexed": false,
          "internalType": "uint256",
          "name": "id",
          "type": "uint256"
        },
        {
          "indexed": false,
          "internalType": "address",
          "name": "tokenAddress",
          "type": "address"
        },
        {
          "indexed": false,
          "internalType": "address",
          "name": "canceller",
          "type": "address"
        }
      ],
      "name": "TokenCancelled",
      "type": "event"
    },
    {
      "anonymous": false,
      "inputs": [
        {
          "indexed": true,
          "internalType": "address",
          "name": "claimer",
          "type": "address"
        },
        {
          "indexed": true,
          "internalType": "address",
          "name": "contractAddress",
          "type": "address"
        }
      ],
      "name": "TokenClaimed",
      "type": "event"
    },
    {
      "inputs": [
        {
          "internalType": "uint256",
          "name": "",
          "type": "uint256"
        }
      ],
      "name": "addressToAirDrop",
      "outputs": [
        {
          "internalType": "address",
          "name": "",
          "type": "address"
        }
      ],
      "stateMutability": "view",
      "type": "function"
    },
    {
      "inputs": [],
      "name": "airDropId",
      "outputs": [
        {
          "internalType": "uint256",
          "name": "",
          "type": "uint256"
        }
      ],
      "stateMutability": "view",
      "type": "function"
    },
    {
      "inputs": [
        {
          "internalType": "uint256",
          "name": "",
          "type": "uint256"
        }
      ],
      "name": "airDropObject",
      "outputs": [
        {
          "internalType": "address",
          "name": "contractAddress",
          "type": "address"
        },
        {
          "internalType": "uint256",
          "name": "amount",
          "type": "uint256"
        },
        {
          "internalType": "enum NotDrop.AirDropType",
          "name": "airDropType",
          "type": "uint8"
        },
        {
          "internalType": "uint256",
          "name": "startTime",
          "type": "uint256"
        },
        {
          "internalType": "uint256",
          "name": "endTime",
          "type": "uint256"
        },
        {
          "internalType": "uint256",
          "name": "id",
          "type": "uint256"
        },
        {
          "internalType": "uint256",
          "name": "maxNumber",
          "type": "uint256"
        },
        {
          "internalType": "address",
          "name": "requirementAddress",
          "type": "address"
        },
        {
          "internalType": "uint256",
          "name": "minimumAmount",
          "type": "uint256"
        },
        {
          "internalType": "enum NotDrop.AirDropRequirement",
          "name": "requirement",
          "type": "uint8"
        }
      ],
      "stateMutability": "view",
      "type": "function"
    },
    {
      "inputs": [
        {
          "internalType": "uint256",
          "name": "",
          "type": "uint256"
        }
      ],
      "name": "airDropToken",
      "outputs": [
        {
          "internalType": "address",
          "name": "",
          "type": "address"
        }
      ],
      "stateMutability": "view",
      "type": "function"
    },
    {
      "inputs": [
        {
          "internalType": "address[]",
          "name": "_recipient",
          "type": "address[]"
        },
        {
          "internalType": "address",
          "name": "tokenAddress",
          "type": "address"
        },
        {
          "internalType": "uint256",
          "name": "_id",
          "type": "uint256"
        },
        {
          "internalType": "uint256",
          "name": "_totalParticipants",
          "type": "uint256"
        }
      ],
      "name": "airDropTokens",
      "outputs": [
        {
          "internalType": "bool",
          "name": "",
          "type": "bool"
        }
      ],
      "stateMutability": "nonpayable",
      "type": "function"
    },
    {
      "inputs": [
        {
          "internalType": "uint256",
          "name": "",
          "type": "uint256"
        }
      ],
      "name": "airdropTokenAdmin",
      "outputs": [
        {
          "internalType": "address",
          "name": "",
          "type": "address"
        }
      ],
      "stateMutability": "view",
      "type": "function"
    },
    {
      "inputs": [
        {
          "internalType": "uint256",
          "name": "id",
          "type": "uint256"
        },
        {
          "internalType": "address",
          "name": "tokenAddress",
          "type": "address"
        }
      ],
      "name": "cancelAirDrop",
      "outputs": [],
      "stateMutability": "nonpayable",
      "type": "function"
    },
    {
      "inputs": [
        {
          "internalType": "uint256",
          "name": "",
          "type": "uint256"
        }
      ],
      "name": "cancelledAirDrop",
      "outputs": [
        {
          "internalType": "address",
          "name": "",
          "type": "address"
        }
      ],
      "stateMutability": "view",
      "type": "function"
    },
    {
      "inputs": [
        {
          "internalType": "uint256",
          "name": "maxNumber",
          "type": "uint256"
        },
        {
          "internalType": "uint256",
          "name": "amount",
          "type": "uint256"
        },
        {
          "internalType": "address",
          "name": "contractAddress",
          "type": "address"
        },
        {
          "internalType": "enum NotDrop.AirDropType",
          "name": "_type",
          "type": "uint8"
        },
        {
          "internalType": "uint256",
          "name": "startTime",
          "type": "uint256"
        },
        {
          "internalType": "uint256",
          "name": "endTime",
          "type": "uint256"
        },
        {
          "internalType": "address",
          "name": "requirementAddress",
          "type": "address"
        },
        {
          "internalType": "uint256",
          "name": "minimumAmount",
          "type": "uint256"
        },
        {
          "internalType": "enum NotDrop.AirDropRequirement",
          "name": "requirement",
          "type": "uint8"
        }
      ],
      "name": "createAirDropToken",
      "outputs": [
        {
          "internalType": "uint256",
          "name": "",
          "type": "uint256"
        }
      ],
      "stateMutability": "payable",
      "type": "function"
    },
    {
      "inputs": [
        {
          "internalType": "uint256",
          "name": "_id",
          "type": "uint256"
        }
      ],
      "name": "getAirDropDetails",
      "outputs": [
        {
          "components": [
            {
              "internalType": "address",
              "name": "contractAddress",
              "type": "address"
            },
            {
              "internalType": "uint256",
              "name": "amount",
              "type": "uint256"
            },
            {
              "internalType": "enum NotDrop.AirDropType",
              "name": "airDropType",
              "type": "uint8"
            },
            {
              "internalType": "uint256",
              "name": "startTime",
              "type": "uint256"
            },
            {
              "internalType": "uint256",
              "name": "endTime",
              "type": "uint256"
            },
            {
              "internalType": "uint256",
              "name": "id",
              "type": "uint256"
            },
            {
              "internalType": "uint256",
              "name": "maxNumber",
              "type": "uint256"
            },
            {
              "internalType": "address",
              "name": "requirementAddress",
              "type": "address"
            },
            {
              "internalType": "uint256",
              "name": "minimumAmount",
              "type": "uint256"
            },
            {
              "internalType": "enum NotDrop.AirDropRequirement",
              "name": "requirement",
              "type": "uint8"
            }
          ],
          "internalType": "struct NotDrop.AirDropToken",
          "name": "",
          "type": "tuple"
        }
      ],
      "stateMutability": "view",
      "type": "function"
    },
    {
      "inputs": [
        {
          "internalType": "address",
          "name": "_notCrypto",
          "type": "address"
        }
      ],
      "name": "initialize",
      "outputs": [],
      "stateMutability": "nonpayable",
      "type": "function"
    },
    {
      "inputs": [],
      "name": "notCryptoAddress",
      "outputs": [
        {
          "internalType": "address",
          "name": "",
          "type": "address"
        }
      ],
      "stateMutability": "view",
      "type": "function"
    },
    {
      "inputs": [],
      "name": "numberAfterStartDays",
      "outputs": [
        {
          "internalType": "uint256",
          "name": "",
          "type": "uint256"
        }
      ],
      "stateMutability": "view",
      "type": "function"
    },
    {
      "inputs": [],
      "name": "owner",
      "outputs": [
        {
          "internalType": "address",
          "name": "",
          "type": "address"
        }
      ],
      "stateMutability": "view",
      "type": "function"
    },
    {
      "inputs": [
        {
          "internalType": "address",
          "name": "",
          "type": "address"
        }
      ],
      "name": "pendingWithdrawals",
      "outputs": [
        {
          "internalType": "uint256",
          "name": "",
          "type": "uint256"
        }
      ],
      "stateMutability": "view",
      "type": "function"
    },
    {
      "inputs": [],
      "name": "price",
      "outputs": [
        {
          "internalType": "uint256",
          "name": "",
          "type": "uint256"
        }
      ],
      "stateMutability": "view",
      "type": "function"
    },
    {
      "inputs": [],
      "name": "renounceOwnership",
      "outputs": [],
      "stateMutability": "nonpayable",
      "type": "function"
    },
    {
      "inputs": [
        {
          "internalType": "uint256",
          "name": "_number",
          "type": "uint256"
        }
      ],
      "name": "setDaysAfterStart",
      "outputs": [],
      "stateMutability": "nonpayable",
      "type": "function"
    },
    {
      "inputs": [
        {
          "internalType": "uint256",
          "name": "_difference",
          "type": "uint256"
        }
      ],
      "name": "setDaysDifference",
      "outputs": [],
      "stateMutability": "nonpayable",
      "type": "function"
    },
    {
      "inputs": [
        {
          "internalType": "address",
          "name": "_notCryptoAddress",
          "type": "address"
        }
      ],
      "name": "setNotCryptoAddress",
      "outputs": [],
      "stateMutability": "nonpayable",
      "type": "function"
    },
    {
      "inputs": [
        {
          "internalType": "uint256",
          "name": "_price",
          "type": "uint256"
        }
      ],
      "name": "setPrice",
      "outputs": [],
      "stateMutability": "nonpayable",
      "type": "function"
    },
    {
      "inputs": [],
      "name": "timeDifference",
      "outputs": [
        {
          "internalType": "uint256",
          "name": "",
          "type": "uint256"
        }
      ],
      "stateMutability": "view",
      "type": "function"
    },
    {
      "inputs": [
        {
          "internalType": "address",
          "name": "newOwner",
          "type": "address"
        }
      ],
      "name": "transferOwnership",
      "outputs": [],
      "stateMutability": "nonpayable",
      "type": "function"
    },
    {
      "inputs": [
        {
          "internalType": "address",
          "name": "_tokenAddress",
          "type": "address"
        }
      ],
      "name": "withdraw",
      "outputs": [],
      "stateMutability": "payable",
      "type": "function"
    }
  ],
  "bytecode": "0x60806040526000606655600f606755600a606855606980546001600160a01b03191673acbab4f91aaf1aa18fe5aef926baafa57e6273c717905534801561004557600080fd5b50611e40806100556000396000f3fe60806040526004361061014b5760003560e01c80639c8dff86116100b6578063d84cb8421161006f578063d84cb84214610449578063e2a3211b1461045f578063f2fde38b1461047f578063f3f437031461049f578063fe1e393e146104cc578063fe711628146104ec57600080fd5b80639c8dff86146103aa578063a035b1fe146103c0578063a585b4fc146103d6578063c293ad60146103e9578063c4d66de814610409578063ce657c431461042957600080fd5b806351cff8d91161010857806351cff8d9146102ec57806358236cc51461030157806365da934914610337578063715018a6146103575780638da5cb5b1461036c57806391b7f5ed1461038a57600080fd5b806306ab42ca14610150578063162922fb146101a35780631ea9a7bb146101d957806345680a5c146101fd5780634d0b7ac01461022d5780634e3dafdf1461025a575b600080fd5b34801561015c57600080fd5b5061018661016b366004611a86565b606b602052600090815260409020546001600160a01b031681565b6040516001600160a01b0390911681526020015b60405180910390f35b3480156101af57600080fd5b506101866101be366004611a86565b606d602052600090815260409020546001600160a01b031681565b3480156101e557600080fd5b506101ef60685481565b60405190815260200161019a565b34801561020957600080fd5b5061021d6102183660046119d5565b610522565b604051901515815260200161019a565b34801561023957600080fd5b5061024d610248366004611a86565b610c02565b60405161019a9190611d2d565b34801561026657600080fd5b506102d6610275366004611a86565b606e6020526000908152604090208054600182015460028301546003840154600485015460058601546006870154600788015460088901546009909901546001600160a01b0398891699979860ff978816989697959694959394921692168a565b60405161019a9a99989796959493929190611c09565b6102ff6102fa3660046119b4565b610d28565b005b34801561030d57600080fd5b5061018661031c366004611a86565b606a602052600090815260409020546001600160a01b031681565b34801561034357600080fd5b506102ff610352366004611a86565b610dc3565b34801561036357600080fd5b506102ff610df2565b34801561037857600080fd5b506033546001600160a01b0316610186565b34801561039657600080fd5b506102ff6103a5366004611a86565b610e58565b3480156103b657600080fd5b506101ef60665481565b3480156103cc57600080fd5b506101ef60655481565b6101ef6103e4366004611ae1565b610e87565b3480156103f557600080fd5b506102ff610404366004611ab6565b611398565b34801561041557600080fd5b506102ff6104243660046119b4565b611607565b34801561043557600080fd5b506102ff610444366004611a86565b6116da565b34801561045557600080fd5b506101ef60675481565b34801561046b57600080fd5b50606954610186906001600160a01b031681565b34801561048b57600080fd5b506102ff61049a3660046119b4565b611709565b3480156104ab57600080fd5b506101ef6104ba3660046119b4565b606f6020526000908152604090205481565b3480156104d857600080fd5b506102ff6104e73660046119b4565b6117d4565b3480156104f857600080fd5b50610186610507366004611a86565b606c602052600090815260409020546001600160a01b031681565b6000828152606c602052604081205483906001600160a01b031633146105635760405162461bcd60e51b815260040161055a90611c79565b60405180910390fd5b6000848152606d60205260409020546001600160a01b03868116911614156105cd5760405162461bcd60e51b815260206004820152601a60248201527f41697244726f7020486173204265656e2043616e63656c6c6564000000000000604482015260640161055a565b6000848152606e6020908152604080832081516101408101835281546001600160a01b03168152600182015493810193909352600280820154919284019160ff169081111561062c57634e487b7160e01b600052602160045260246000fd5b600281111561064b57634e487b7160e01b600052602160045260246000fd5b81526003820154602082015260048201546040820152600582015460608201526006820154608082015260078201546001600160a01b031660a0820152600882015460c0820152600982015460e09091019060ff1660028111156106bf57634e487b7160e01b600052602160045260246000fd5b60028111156106de57634e487b7160e01b600052602160045260246000fd5b90525060c081015190915087111561072a5760405162461bcd60e51b815260206004820152600f60248201526e105a5c911c9bdc081a5cc8199d5b1b608a1b604482015260640161055a565b8060c001518411156107705760405162461bcd60e51b815260206004820152600f60248201526e105a5c911c9bdc081a5cc8199d5b1b608a1b604482015260640161055a565b42816080015111156107c45760405162461bcd60e51b815260206004820152601760248201527f41697244726f70206973205374696c6c20416374697665000000000000000000604482015260640161055a565b60005b84811015610bf357600082610120015160028111156107f657634e487b7160e01b600052602160045260246000fd5b14156108e4578161010001518260e001516001600160a01b03166370a082318b8b8581811061083557634e487b7160e01b600052603260045260246000fd5b905060200201602081019061084a91906119b4565b6040516001600160e01b031960e084901b1681526001600160a01b03909116600482015260240160206040518083038186803b15801561088957600080fd5b505afa15801561089d573d6000803e3d6000fd5b505050506040513d601f19601f820116820180604052508101906108c19190611a9e565b10156108df5760405162461bcd60e51b815260040161055a90611c9f565b6109f0565b6001826101200151600281111561090b57634e487b7160e01b600052602160045260246000fd5b14156109f05760018260e001516001600160a01b03166370a082318b8b8581811061094657634e487b7160e01b600052603260045260246000fd5b905060200201602081019061095b91906119b4565b6040516001600160e01b031960e084901b1681526001600160a01b03909116600482015260240160206040518083038186803b15801561099a57600080fd5b505afa1580156109ae573d6000803e3d6000fd5b505050506040513d601f19601f820116820180604052508101906109d29190611a9e565b10156109f05760405162461bcd60e51b815260040161055a90611c9f565b888882818110610a1057634e487b7160e01b600052603260045260246000fd5b9050602002016020810190610a2591906119b4565b6000878152606a60205260409020546001600160a01b0390811691161415610a9a5760405162461bcd60e51b815260206004820152602260248201527f557365722048617320416c726561647920476f7474656e20746869732044726f604482015261702160f01b606482015260840161055a565b866001600160a01b031663a9059cbb8a8a84818110610ac957634e487b7160e01b600052603260045260246000fd5b9050602002016020810190610ade91906119b4565b878560200151610aee9190611d77565b6040516001600160e01b031960e085901b1681526001600160a01b0390921660048301526024820152604401602060405180830381600087803b158015610b3457600080fd5b505af1158015610b48573d6000803e3d6000fd5b505050506040513d601f19601f82011682018060405250810190610b6c9190611a66565b50866001600160a01b0316898983818110610b9757634e487b7160e01b600052603260045260246000fd5b9050602002016020810190610bac91906119b4565b6001600160a01b03167f785e35570597f582a383f062831f1c9021c138add5d4dfb23c7619552f6e618760405160405180910390a380610beb81611dae565b9150506107c7565b50600198975050505050505050565b610c0a61191e565b6000828152606e602090815260409182902082516101408101845281546001600160a01b03168152600182015492810192909252600280820154929391929184019160ff1690811115610c6d57634e487b7160e01b600052602160045260246000fd5b6002811115610c8c57634e487b7160e01b600052602160045260246000fd5b81526003820154602082015260048201546040820152600582015460608201526006820154608082015260078201546001600160a01b031660a0820152600882015460c0820152600982015460e09091019060ff166002811115610d0057634e487b7160e01b600052602160045260246000fd5b6002811115610d1f57634e487b7160e01b600052602160045260246000fd5b90525092915050565b336000818152606f602052604080822080549290555163a9059cbb60e01b8152600481019290925260248201819052906001600160a01b0383169063a9059cbb90604401602060405180830381600087803b158015610d8657600080fd5b505af1158015610d9a573d6000803e3d6000fd5b505050506040513d601f19601f82011682018060405250810190610dbe9190611a66565b505050565b6069546001600160a01b03163314610ded5760405162461bcd60e51b815260040161055a90611c79565b606755565b6033546001600160a01b03163314610e4c5760405162461bcd60e51b815260206004820181905260248201527f4f776e61626c653a2063616c6c6572206973206e6f7420746865206f776e6572604482015260640161055a565b610e566000611820565b565b6069546001600160a01b03163314610e825760405162461bcd60e51b815260040161055a90611c79565b606555565b6066805460009182919082610e9b83611dae565b919050559050428610158015610eb15750428710155b610eec5760405162461bcd60e51b815260206004820152600c60248201526b496e76616c6964204461746560a01b604482015260640161055a565b606754610ef99042611d5f565b871115610f3d5760405162461bcd60e51b8152602060048201526012602482015271496e76616c6964205374617274204461746560701b604482015260640161055a565b6000610f498888611d97565b9050606854811115610f9d5760405162461bcd60e51b815260206004820152601860248201527f54696d6520446966666572656e63652045786365656465640000000000000000604482015260640161055a565b6040516370a0823160e01b81526001600160a01b038b16600482018190528c916370a082319060240160206040518083038186803b158015610fde57600080fd5b505afa158015610ff2573d6000803e3d6000fd5b505050506040513d601f19601f820116820180604052508101906110169190611a9e565b10156110595760405162461bcd60e51b8152602060048201526012602482015271496e73756666696369656e742046756e647360701b604482015260640161055a565b6065543410156110ab5760405162461bcd60e51b815260206004820152601d60248201527f4e6f7420656e6f756768205061696420746f204c69737420546f6b656e000000604482015260640161055a565b6040516323b872dd60e01b8152336004820152306024820152604481018c90526001600160a01b038b16906323b872dd90606401602060405180830381600087803b1580156110f957600080fd5b505af115801561110d573d6000803e3d6000fd5b505050506040513d601f19601f820116820180604052508101906111319190611a66565b506000828152606c6020908152604080832080546001600160a01b031916331790558051610140810182526001600160a01b038e1681529182018e905281018b600281111561119057634e487b7160e01b600052602160045260246000fd5b81526020018a81526020018981526020018481526020018e8152602001886001600160a01b031681526020018781526020018660028111156111e257634e487b7160e01b600052602160045260246000fd5b81525090508a606b600085815260200190815260200160002060006101000a8154816001600160a01b0302191690836001600160a01b0316021790555080606e600085815260200190815260200160002060008201518160000160006101000a8154816001600160a01b0302191690836001600160a01b031602179055506020820151816001015560408201518160020160006101000a81548160ff021916908360028111156112a257634e487b7160e01b600052602160045260246000fd5b0217905550606082015160038201556080820151600482015560a0820151600582015560c0820151600682015560e08201516007820180546001600160a01b0319166001600160a01b03909216919091179055610100820151600882015561012082015160098201805460ff1916600183600281111561133257634e487b7160e01b600052602160045260246000fd5b02179055509050508a6001600160a01b0316336001600160a01b03167f6935864a4d88147812d2e4ad656876083fbf64a20d582e9fd62a87ab4f553d89838660405161137f929190611d42565b60405180910390a350909b9a5050505050505050505050565b6069546001600160a01b031633146113c25760405162461bcd60e51b815260040161055a90611c79565b6000828152606c60205260409020546001600160a01b03163314806113fd57506000828152606c60205260409020546001600160a01b031633145b6114195760405162461bcd60e51b815260040161055a90611c79565b6000828152606e6020908152604080832081516101408101835281546001600160a01b03168152600182015493810193909352600280820154919284019160ff169081111561147857634e487b7160e01b600052602160045260246000fd5b600281111561149757634e487b7160e01b600052602160045260246000fd5b81526003820154602082015260048201546040820152600582015460608201526006820154608082015260078201546001600160a01b031660a0820152600882015460c0820152600982015460e09091019060ff16600281111561150b57634e487b7160e01b600052602160045260246000fd5b600281111561152a57634e487b7160e01b600052602160045260246000fd5b815250509050428160800151111561157c5760405162461bcd60e51b8152602060048201526015602482015274105a5c911c9bdc08185b1c9958591e48115b991959605a1b604482015260640161055a565b6000838152606d6020908152604080832080546001600160a01b038781166001600160a01b0319909216821790925585840151606c8552838620549092168552606f84529382902055805186815291820192909252338183015290517fdaed7fe6ee54468a612ace6d0a07ef93f42591bd958d0390bfc9a6e09e93ccc59181900360600190a1505050565b600054610100900460ff166116225760005460ff1615611626565b303b155b6116895760405162461bcd60e51b815260206004820152602e60248201527f496e697469616c697a61626c653a20636f6e747261637420697320616c72656160448201526d191e481a5b9a5d1a585b1a5e995960921b606482015260840161055a565b600054610100900460ff161580156116ab576000805461ffff19166101011790555b6116b3611872565b6116bb611899565b6116c4826118c9565b80156116d6576000805461ff00191690555b5050565b6069546001600160a01b031633146117045760405162461bcd60e51b815260040161055a90611c79565b606855565b6033546001600160a01b031633146117635760405162461bcd60e51b815260206004820181905260248201527f4f776e61626c653a2063616c6c6572206973206e6f7420746865206f776e6572604482015260640161055a565b6001600160a01b0381166117c85760405162461bcd60e51b815260206004820152602660248201527f4f776e61626c653a206e6577206f776e657220697320746865207a65726f206160448201526564647265737360d01b606482015260840161055a565b6117d181611820565b50565b6069546001600160a01b031633146117fe5760405162461bcd60e51b815260040161055a90611c79565b606980546001600160a01b0319166001600160a01b0392909216919091179055565b603380546001600160a01b038381166001600160a01b0319831681179093556040519116919082907f8be0079c531659141344cd1fd0a4f28419497f9722a3daafe3b4186f6b6457e090600090a35050565b600054610100900460ff16610e565760405162461bcd60e51b815260040161055a90611ce2565b600054610100900460ff166118c05760405162461bcd60e51b815260040161055a90611ce2565b610e5633611820565b600054610100900460ff166118f05760405162461bcd60e51b815260040161055a90611ce2565b606980546001600160a01b0319166001600160a01b039290921691909117905567016345785d8a0000606555565b6040805161014081018252600080825260208201819052909182019081526020016000815260200160008152602001600081526020016000815260200160006001600160a01b03168152602001600081526020016000600281111561199357634e487b7160e01b600052602160045260246000fd5b905290565b80356001600160a01b03811681146119af57600080fd5b919050565b6000602082840312156119c5578081fd5b6119ce82611998565b9392505050565b6000806000806000608086880312156119ec578081fd5b853567ffffffffffffffff80821115611a03578283fd5b818801915088601f830112611a16578283fd5b813581811115611a24578384fd5b8960208260051b8501011115611a38578384fd5b602092830197509550611a4e9188019050611998565b94979396509394604081013594506060013592915050565b600060208284031215611a77578081fd5b815180151581146119ce578182fd5b600060208284031215611a97578081fd5b5035919050565b600060208284031215611aaf578081fd5b5051919050565b60008060408385031215611ac8578182fd5b82359150611ad860208401611998565b90509250929050565b60008060008060008060008060006101208a8c031215611aff578384fd5b8935985060208a01359750611b1660408b01611998565b965060608a0135611b2681611dfd565b955060808a0135945060a08a01359350611b4260c08b01611998565b925060e08a013591506101008a0135611b5a81611dfd565b809150509295985092959850929598565b611b7481611ddf565b9052565b80516001600160a01b03168252602081015160208301526040810151611ba16040840182611b6b565b50606081015160608301526080810151608083015260a081015160a083015260c081015160c083015260e0810151611be460e08401826001600160a01b03169052565b50610100818101519083015261012080820151611c0382850182611b6b565b50505050565b6001600160a01b038b81168252602082018b9052610140820190611c2c8b611ddf565b8a60408401528960608401528860808401528760a08401528660c084015280861660e08401525083610100830152611c6383611ddf565b826101208301529b9a5050505050505050505050565b6020808252600c908201526b155b985d5d1a1bdc9a5e995960a21b604082015260600190565b60208082526023908201527f526563657069656e7420646f6573206e6f74205175616c69667920466f7220446040820152620726f760ec1b606082015260800190565b6020808252602b908201527f496e697469616c697a61626c653a20636f6e7472616374206973206e6f74206960408201526a6e697469616c697a696e6760a81b606082015260800190565b6101408101611d3c8284611b78565b92915050565b6101608101611d518285611b78565b826101408301529392505050565b60008219821115611d7257611d72611dc9565b500190565b600082611d9257634e487b7160e01b81526012600452602481fd5b500490565b600082821015611da957611da9611dc9565b500390565b6000600019821415611dc257611dc2611dc9565b5060010190565b634e487b7160e01b600052601160045260246000fd5b600381106117d157634e487b7160e01b600052602160045260246000fd5b600381106117d157600080fdfea264697066735822122055ce8eb805759f2ddf13cd91506783fcbebc90956dfa586307b2de4850d3db9f64736f6c63430008040033",
  "linkReferences": {},
  "deployedLinkReferences": {}
}