{
  "_format": "hh-sol-artifact-1",
  "contractName": "NotDrop",
  "sourceName": "contracts/NotDrop.sol",
  "abi": [
    {
      "anonymous": false,
      "inputs": [
        {
          "components": [
            {
              "internalType": "address",
              "name": "contractAddress",
              "type": "address"
            },
            {
              "internalType": "uint256",
              "name": "amount",
              "type": "uint256"
            },
            {
              "internalType": "enum NotDrop.AirDropType",
              "name": "airDropType",
              "type": "uint8"
            },
            {
              "internalType": "uint256",
              "name": "startTime",
              "type": "uint256"
            },
            {
              "internalType": "uint256",
              "name": "endTime",
              "type": "uint256"
            },
            {
              "internalType": "uint256",
              "name": "id",
              "type": "uint256"
            },
            {
              "internalType": "uint256",
              "name": "maxNumber",
              "type": "uint256"
            },
            {
              "internalType": "address",
              "name": "requirementAddress",
              "type": "address"
            },
            {
              "internalType": "uint256",
              "name": "minimumAmount",
              "type": "uint256"
            },
            {
              "internalType": "enum NotDrop.AirDropRequirement",
              "name": "requirement",
              "type": "uint8"
            }
          ],
          "indexed": false,
          "internalType": "struct NotDrop.AirDropToken",
          "name": "token",
          "type": "tuple"
        },
        {
          "indexed": true,
          "internalType": "address",
          "name": "creatorAddress",
          "type": "address"
        },
        {
          "indexed": true,
          "internalType": "address",
          "name": "contractAddress",
          "type": "address"
        },
        {
          "indexed": false,
          "internalType": "uint256",
          "name": "dropId",
          "type": "uint256"
        },
        {
          "indexed": false,
          "internalType": "uint256",
          "name": "dropDetailsId",
          "type": "uint256"
        }
      ],
      "name": "AirDropTokenCreated",
      "type": "event"
    },
    {
      "anonymous": false,
      "inputs": [
        {
          "indexed": true,
          "internalType": "address",
          "name": "previousOwner",
          "type": "address"
        },
        {
          "indexed": true,
          "internalType": "address",
          "name": "newOwner",
          "type": "address"
        }
      ],
      "name": "OwnershipTransferred",
      "type": "event"
    },
    {
      "anonymous": false,
      "inputs": [
        {
          "indexed": false,
          "internalType": "uint256",
          "name": "id",
          "type": "uint256"
        },
        {
          "indexed": false,
          "internalType": "address",
          "name": "tokenAddress",
          "type": "address"
        },
        {
          "indexed": false,
          "internalType": "address",
          "name": "canceller",
          "type": "address"
        }
      ],
      "name": "TokenCancelled",
      "type": "event"
    },
    {
      "anonymous": false,
      "inputs": [
        {
          "indexed": true,
          "internalType": "address",
          "name": "claimer",
          "type": "address"
        },
        {
          "indexed": true,
          "internalType": "address",
          "name": "contractAddress",
          "type": "address"
        }
      ],
      "name": "TokenClaimed",
      "type": "event"
    },
    {
      "inputs": [],
      "name": "NotCommunityAddress",
      "outputs": [
        {
          "internalType": "address",
          "name": "",
          "type": "address"
        }
      ],
      "stateMutability": "view",
      "type": "function"
    },
    {
      "inputs": [
        {
          "internalType": "uint256",
          "name": "",
          "type": "uint256"
        }
      ],
      "name": "addressToAirDrop",
      "outputs": [
        {
          "internalType": "address",
          "name": "",
          "type": "address"
        }
      ],
      "stateMutability": "view",
      "type": "function"
    },
    {
      "inputs": [],
      "name": "airDropId",
      "outputs": [
        {
          "internalType": "uint256",
          "name": "",
          "type": "uint256"
        }
      ],
      "stateMutability": "view",
      "type": "function"
    },
    {
      "inputs": [
        {
          "internalType": "uint256",
          "name": "",
          "type": "uint256"
        }
      ],
      "name": "airDropObject",
      "outputs": [
        {
          "internalType": "address",
          "name": "contractAddress",
          "type": "address"
        },
        {
          "internalType": "uint256",
          "name": "amount",
          "type": "uint256"
        },
        {
          "internalType": "enum NotDrop.AirDropType",
          "name": "airDropType",
          "type": "uint8"
        },
        {
          "internalType": "uint256",
          "name": "startTime",
          "type": "uint256"
        },
        {
          "internalType": "uint256",
          "name": "endTime",
          "type": "uint256"
        },
        {
          "internalType": "uint256",
          "name": "id",
          "type": "uint256"
        },
        {
          "internalType": "uint256",
          "name": "maxNumber",
          "type": "uint256"
        },
        {
          "internalType": "address",
          "name": "requirementAddress",
          "type": "address"
        },
        {
          "internalType": "uint256",
          "name": "minimumAmount",
          "type": "uint256"
        },
        {
          "internalType": "enum NotDrop.AirDropRequirement",
          "name": "requirement",
          "type": "uint8"
        }
      ],
      "stateMutability": "view",
      "type": "function"
    },
    {
      "inputs": [
        {
          "internalType": "uint256",
          "name": "",
          "type": "uint256"
        }
      ],
      "name": "airDropToken",
      "outputs": [
        {
          "internalType": "address",
          "name": "",
          "type": "address"
        }
      ],
      "stateMutability": "view",
      "type": "function"
    },
    {
      "inputs": [
        {
          "internalType": "address[]",
          "name": "_recipient",
          "type": "address[]"
        },
        {
          "internalType": "address",
          "name": "tokenAddress",
          "type": "address"
        },
        {
          "internalType": "uint256",
          "name": "_id",
          "type": "uint256"
        },
        {
          "internalType": "uint256",
          "name": "_totalParticipants",
          "type": "uint256"
        }
      ],
      "name": "airDropTokens",
      "outputs": [
        {
          "internalType": "bool",
          "name": "",
          "type": "bool"
        }
      ],
      "stateMutability": "nonpayable",
      "type": "function"
    },
    {
      "inputs": [
        {
          "internalType": "uint256",
          "name": "",
          "type": "uint256"
        }
      ],
      "name": "airdropTokenAdmin",
      "outputs": [
        {
          "internalType": "address",
          "name": "",
          "type": "address"
        }
      ],
      "stateMutability": "view",
      "type": "function"
    },
    {
      "inputs": [
        {
          "internalType": "uint256",
          "name": "id",
          "type": "uint256"
        },
        {
          "internalType": "address",
          "name": "tokenAddress",
          "type": "address"
        }
      ],
      "name": "cancelAirDrop",
      "outputs": [],
      "stateMutability": "nonpayable",
      "type": "function"
    },
    {
      "inputs": [
        {
          "internalType": "uint256",
          "name": "",
          "type": "uint256"
        }
      ],
      "name": "cancelledAirDrop",
      "outputs": [
        {
          "internalType": "address",
          "name": "",
          "type": "address"
        }
      ],
      "stateMutability": "view",
      "type": "function"
    },
    {
      "inputs": [
        {
          "internalType": "uint256",
          "name": "maxNumber",
          "type": "uint256"
        },
        {
          "internalType": "uint256",
          "name": "amount",
          "type": "uint256"
        },
        {
          "internalType": "address",
          "name": "contractAddress",
          "type": "address"
        },
        {
          "internalType": "enum NotDrop.AirDropType",
          "name": "_type",
          "type": "uint8"
        },
        {
          "internalType": "uint256",
          "name": "startTime",
          "type": "uint256"
        },
        {
          "internalType": "uint256",
          "name": "endTime",
          "type": "uint256"
        },
        {
          "internalType": "address",
          "name": "requirementAddress",
          "type": "address"
        },
        {
          "internalType": "uint256",
          "name": "minimumAmount",
          "type": "uint256"
        },
        {
          "internalType": "enum NotDrop.AirDropRequirement",
          "name": "requirement",
          "type": "uint8"
        },
        {
          "internalType": "uint256",
          "name": "dropDetailsId",
          "type": "uint256"
        }
      ],
      "name": "createAirDropToken",
      "outputs": [
        {
          "internalType": "uint256",
          "name": "",
          "type": "uint256"
        }
      ],
      "stateMutability": "payable",
      "type": "function"
    },
    {
      "inputs": [
        {
          "internalType": "uint256",
          "name": "_id",
          "type": "uint256"
        }
      ],
      "name": "getAirDropDetails",
      "outputs": [
        {
          "components": [
            {
              "internalType": "address",
              "name": "contractAddress",
              "type": "address"
            },
            {
              "internalType": "uint256",
              "name": "amount",
              "type": "uint256"
            },
            {
              "internalType": "enum NotDrop.AirDropType",
              "name": "airDropType",
              "type": "uint8"
            },
            {
              "internalType": "uint256",
              "name": "startTime",
              "type": "uint256"
            },
            {
              "internalType": "uint256",
              "name": "endTime",
              "type": "uint256"
            },
            {
              "internalType": "uint256",
              "name": "id",
              "type": "uint256"
            },
            {
              "internalType": "uint256",
              "name": "maxNumber",
              "type": "uint256"
            },
            {
              "internalType": "address",
              "name": "requirementAddress",
              "type": "address"
            },
            {
              "internalType": "uint256",
              "name": "minimumAmount",
              "type": "uint256"
            },
            {
              "internalType": "enum NotDrop.AirDropRequirement",
              "name": "requirement",
              "type": "uint8"
            }
          ],
          "internalType": "struct NotDrop.AirDropToken",
          "name": "",
          "type": "tuple"
        }
      ],
      "stateMutability": "view",
      "type": "function"
    },
    {
      "inputs": [
        {
          "internalType": "address",
          "name": "_NotCommunity",
          "type": "address"
        }
      ],
      "name": "initialize",
      "outputs": [],
      "stateMutability": "nonpayable",
      "type": "function"
    },
    {
      "inputs": [],
      "name": "numberAfterStartDays",
      "outputs": [
        {
          "internalType": "uint256",
          "name": "",
          "type": "uint256"
        }
      ],
      "stateMutability": "view",
      "type": "function"
    },
    {
      "inputs": [],
      "name": "owner",
      "outputs": [
        {
          "internalType": "address",
          "name": "",
          "type": "address"
        }
      ],
      "stateMutability": "view",
      "type": "function"
    },
    {
      "inputs": [
        {
          "internalType": "address",
          "name": "",
          "type": "address"
        }
      ],
      "name": "pendingWithdrawals",
      "outputs": [
        {
          "internalType": "uint256",
          "name": "",
          "type": "uint256"
        }
      ],
      "stateMutability": "view",
      "type": "function"
    },
    {
      "inputs": [],
      "name": "price",
      "outputs": [
        {
          "internalType": "uint256",
          "name": "",
          "type": "uint256"
        }
      ],
      "stateMutability": "view",
      "type": "function"
    },
    {
      "inputs": [],
      "name": "renounceOwnership",
      "outputs": [],
      "stateMutability": "nonpayable",
      "type": "function"
    },
    {
      "inputs": [
        {
          "internalType": "uint256",
          "name": "_number",
          "type": "uint256"
        }
      ],
      "name": "setDaysAfterStart",
      "outputs": [],
      "stateMutability": "nonpayable",
      "type": "function"
    },
    {
      "inputs": [
        {
          "internalType": "uint256",
          "name": "_difference",
          "type": "uint256"
        }
      ],
      "name": "setDaysDifference",
      "outputs": [],
      "stateMutability": "nonpayable",
      "type": "function"
    },
    {
      "inputs": [
        {
          "internalType": "address",
          "name": "_NotCommunityAddress",
          "type": "address"
        }
      ],
      "name": "setNotCommunityAddress",
      "outputs": [],
      "stateMutability": "nonpayable",
      "type": "function"
    },
    {
      "inputs": [
        {
          "internalType": "uint256",
          "name": "_price",
          "type": "uint256"
        }
      ],
      "name": "setPrice",
      "outputs": [],
      "stateMutability": "nonpayable",
      "type": "function"
    },
    {
      "inputs": [],
      "name": "timeDifference",
      "outputs": [
        {
          "internalType": "uint256",
          "name": "",
          "type": "uint256"
        }
      ],
      "stateMutability": "view",
      "type": "function"
    },
    {
      "inputs": [
        {
          "internalType": "address",
          "name": "newOwner",
          "type": "address"
        }
      ],
      "name": "transferOwnership",
      "outputs": [],
      "stateMutability": "nonpayable",
      "type": "function"
    },
    {
      "inputs": [
        {
          "internalType": "address",
          "name": "_tokenAddress",
          "type": "address"
        }
      ],
      "name": "withdraw",
      "outputs": [],
      "stateMutability": "payable",
      "type": "function"
    }
  ],
  "bytecode": "0x608060405234801561001057600080fd5b50611e28806100206000396000f3fe60806040526004361061014b5760003560e01c80638da5cb5b116100b6578063c4d66de81161006f578063c4d66de814610449578063ce657c4314610469578063d84cb84214610489578063f2fde38b1461049f578063f3f43703146104bf578063fe711628146104ec57600080fd5b80638da5cb5b1461039f57806391b7f5ed146103bd5780639c8dff86146103dd578063a035b1fe146103f3578063a3a4dbc614610409578063c293ad601461042957600080fd5b80634d0b7ac0116101085780634d0b7ac0146102605780634e3dafdf1461028d57806351cff8d91461031f57806358236cc51461033457806365da93491461036a578063715018a61461038a57600080fd5b806306ab42ca146101505780630e1f4ecc146101a35780631109ddc0146101c4578063162922fb146101e45780631ea9a7bb1461021a57806345680a5c14610230575b600080fd5b34801561015c57600080fd5b5061018661016b366004611a5e565b606b602052600090815260409020546001600160a01b031681565b6040516001600160a01b0390911681526020015b60405180910390f35b6101b66101b1366004611ab9565b610522565b60405190815260200161019a565b3480156101d057600080fd5b50606954610186906001600160a01b031681565b3480156101f057600080fd5b506101866101ff366004611a5e565b606d602052600090815260409020546001600160a01b031681565b34801561022657600080fd5b506101b660685481565b34801561023c57600080fd5b5061025061024b3660046119ad565b610a3b565b604051901515815260200161019a565b34801561026c57600080fd5b5061028061027b366004611a5e565b611112565b60405161019a9190611d10565b34801561029957600080fd5b506103096102a8366004611a5e565b606e6020526000908152604090208054600182015460028301546003840154600485015460058601546006870154600788015460088901546009909901546001600160a01b0398891699979860ff978816989697959694959394921692168a565b60405161019a9a99989796959493929190611bec565b61033261032d36600461198c565b611238565b005b34801561034057600080fd5b5061018661034f366004611a5e565b606a602052600090815260409020546001600160a01b031681565b34801561037657600080fd5b50610332610385366004611a5e565b6112d3565b34801561039657600080fd5b50610332611302565b3480156103ab57600080fd5b506033546001600160a01b0316610186565b3480156103c957600080fd5b506103326103d8366004611a5e565b611368565b3480156103e957600080fd5b506101b660665481565b3480156103ff57600080fd5b506101b660655481565b34801561041557600080fd5b5061033261042436600461198c565b611397565b34801561043557600080fd5b50610332610444366004611a8e565b6113e3565b34801561045557600080fd5b5061033261046436600461198c565b61161c565b34801561047557600080fd5b50610332610484366004611a5e565b6116ef565b34801561049557600080fd5b506101b660675481565b3480156104ab57600080fd5b506103326104ba36600461198c565b61171e565b3480156104cb57600080fd5b506101b66104da36600461198c565b606f6020526000908152604090205481565b3480156104f857600080fd5b50610186610507366004611a5e565b606c602052600090815260409020546001600160a01b031681565b606680546000918291908261053683611d96565b91905055905042871015801561054c5750428810155b61058c5760405162461bcd60e51b815260206004820152600c60248201526b496e76616c6964204461746560a01b60448201526064015b60405180910390fd5b6067546105999042611d47565b8811156105dd5760405162461bcd60e51b8152602060048201526012602482015271496e76616c6964205374617274204461746560701b6044820152606401610583565b60006105e98989611d7f565b905060685481111561063d5760405162461bcd60e51b815260206004820152601860248201527f54696d6520446966666572656e636520457863656564656400000000000000006044820152606401610583565b6040516370a0823160e01b81526001600160a01b038c16600482018190528d916370a082319060240160206040518083038186803b15801561067e57600080fd5b505afa158015610692573d6000803e3d6000fd5b505050506040513d601f19601f820116820180604052508101906106b69190611a76565b10156106f95760405162461bcd60e51b8152602060048201526012602482015271496e73756666696369656e742046756e647360701b6044820152606401610583565b60655434101561074b5760405162461bcd60e51b815260206004820152601d60248201527f4e6f7420656e6f756768205061696420746f204c69737420546f6b656e0000006044820152606401610583565b6040516323b872dd60e01b8152336004820152306024820152604481018d90526001600160a01b038c16906323b872dd90606401602060405180830381600087803b15801561079957600080fd5b505af11580156107ad573d6000803e3d6000fd5b505050506040513d601f19601f820116820180604052508101906107d19190611a3e565b506000828152606c6020908152604080832080546001600160a01b031916331790558051610140810182526001600160a01b038f1681529182018f905281018c600281111561083057634e487b7160e01b600052602160045260246000fd5b81526020018b81526020018a81526020018481526020018f8152602001896001600160a01b0316815260200188815260200187600281111561088257634e487b7160e01b600052602160045260246000fd5b81525090508b606b600085815260200190815260200160002060006101000a8154816001600160a01b0302191690836001600160a01b0316021790555080606e600085815260200190815260200160002060008201518160000160006101000a8154816001600160a01b0302191690836001600160a01b031602179055506020820151816001015560408201518160020160006101000a81548160ff0219169083600281111561094257634e487b7160e01b600052602160045260246000fd5b0217905550606082015160038201556080820151600482015560a0820151600582015560c0820151600682015560e08201516007820180546001600160a01b0319166001600160a01b03909216919091179055610100820151600882015561012082015160098201805460ff191660018360028111156109d257634e487b7160e01b600052602160045260246000fd5b02179055509050508b6001600160a01b0316336001600160a01b03167f105bdb90efa7bbb625829e7089eb872b874763c371f2235df8f5c00d6e2901ec838689604051610a2193929190611d25565b60405180910390a350909c9b505050505050505050505050565b6000828152606c602052604081205483906001600160a01b03163314610a735760405162461bcd60e51b815260040161058390611c5c565b6000848152606d60205260409020546001600160a01b0386811691161415610add5760405162461bcd60e51b815260206004820152601a60248201527f41697244726f7020486173204265656e2043616e63656c6c65640000000000006044820152606401610583565b6000848152606e6020908152604080832081516101408101835281546001600160a01b03168152600182015493810193909352600280820154919284019160ff1690811115610b3c57634e487b7160e01b600052602160045260246000fd5b6002811115610b5b57634e487b7160e01b600052602160045260246000fd5b81526003820154602082015260048201546040820152600582015460608201526006820154608082015260078201546001600160a01b031660a0820152600882015460c0820152600982015460e09091019060ff166002811115610bcf57634e487b7160e01b600052602160045260246000fd5b6002811115610bee57634e487b7160e01b600052602160045260246000fd5b90525060c0810151909150871115610c3a5760405162461bcd60e51b815260206004820152600f60248201526e105a5c911c9bdc081a5cc8199d5b1b608a1b6044820152606401610583565b8060c00151841115610c805760405162461bcd60e51b815260206004820152600f60248201526e105a5c911c9bdc081a5cc8199d5b1b608a1b6044820152606401610583565b4281608001511115610cd45760405162461bcd60e51b815260206004820152601760248201527f41697244726f70206973205374696c6c204163746976650000000000000000006044820152606401610583565b60005b848110156111035760008261012001516002811115610d0657634e487b7160e01b600052602160045260246000fd5b1415610df4578161010001518260e001516001600160a01b03166370a082318b8b85818110610d4557634e487b7160e01b600052603260045260246000fd5b9050602002016020810190610d5a919061198c565b6040516001600160e01b031960e084901b1681526001600160a01b03909116600482015260240160206040518083038186803b158015610d9957600080fd5b505afa158015610dad573d6000803e3d6000fd5b505050506040513d601f19601f82011682018060405250810190610dd19190611a76565b1015610def5760405162461bcd60e51b815260040161058390611c82565b610f00565b60018261012001516002811115610e1b57634e487b7160e01b600052602160045260246000fd5b1415610f005760018260e001516001600160a01b03166370a082318b8b85818110610e5657634e487b7160e01b600052603260045260246000fd5b9050602002016020810190610e6b919061198c565b6040516001600160e01b031960e084901b1681526001600160a01b03909116600482015260240160206040518083038186803b158015610eaa57600080fd5b505afa158015610ebe573d6000803e3d6000fd5b505050506040513d601f19601f82011682018060405250810190610ee29190611a76565b1015610f005760405162461bcd60e51b815260040161058390611c82565b888882818110610f2057634e487b7160e01b600052603260045260246000fd5b9050602002016020810190610f35919061198c565b6000878152606a60205260409020546001600160a01b0390811691161415610faa5760405162461bcd60e51b815260206004820152602260248201527f557365722048617320416c726561647920476f7474656e20746869732044726f604482015261702160f01b6064820152608401610583565b866001600160a01b031663a9059cbb8a8a84818110610fd957634e487b7160e01b600052603260045260246000fd5b9050602002016020810190610fee919061198c565b878560200151610ffe9190611d5f565b6040516001600160e01b031960e085901b1681526001600160a01b0390921660048301526024820152604401602060405180830381600087803b15801561104457600080fd5b505af1158015611058573d6000803e3d6000fd5b505050506040513d601f19601f8201168201806040525081019061107c9190611a3e565b50866001600160a01b03168989838181106110a757634e487b7160e01b600052603260045260246000fd5b90506020020160208101906110bc919061198c565b6001600160a01b03167f785e35570597f582a383f062831f1c9021c138add5d4dfb23c7619552f6e618760405160405180910390a3806110fb81611d96565b915050610cd7565b50600198975050505050505050565b61111a6118f6565b6000828152606e602090815260409182902082516101408101845281546001600160a01b03168152600182015492810192909252600280820154929391929184019160ff169081111561117d57634e487b7160e01b600052602160045260246000fd5b600281111561119c57634e487b7160e01b600052602160045260246000fd5b81526003820154602082015260048201546040820152600582015460608201526006820154608082015260078201546001600160a01b031660a0820152600882015460c0820152600982015460e09091019060ff16600281111561121057634e487b7160e01b600052602160045260246000fd5b600281111561122f57634e487b7160e01b600052602160045260246000fd5b90525092915050565b336000818152606f602052604080822080549290555163a9059cbb60e01b8152600481019290925260248201819052906001600160a01b0383169063a9059cbb90604401602060405180830381600087803b15801561129657600080fd5b505af11580156112aa573d6000803e3d6000fd5b505050506040513d601f19601f820116820180604052508101906112ce9190611a3e565b505050565b6069546001600160a01b031633146112fd5760405162461bcd60e51b815260040161058390611c5c565b606755565b6033546001600160a01b0316331461135c5760405162461bcd60e51b815260206004820181905260248201527f4f776e61626c653a2063616c6c6572206973206e6f7420746865206f776e65726044820152606401610583565b61136660006117e9565b565b6069546001600160a01b031633146113925760405162461bcd60e51b815260040161058390611c5c565b606555565b6069546001600160a01b031633146113c15760405162461bcd60e51b815260040161058390611c5c565b606980546001600160a01b0319166001600160a01b0392909216919091179055565b6000828152606c60205260409020546001600160a01b031633148061141257506069546001600160a01b031633145b61142e5760405162461bcd60e51b815260040161058390611c5c565b6000828152606e6020908152604080832081516101408101835281546001600160a01b03168152600182015493810193909352600280820154919284019160ff169081111561148d57634e487b7160e01b600052602160045260246000fd5b60028111156114ac57634e487b7160e01b600052602160045260246000fd5b81526003820154602082015260048201546040820152600582015460608201526006820154608082015260078201546001600160a01b031660a0820152600882015460c0820152600982015460e09091019060ff16600281111561152057634e487b7160e01b600052602160045260246000fd5b600281111561153f57634e487b7160e01b600052602160045260246000fd5b81525050905042816080015111156115915760405162461bcd60e51b8152602060048201526015602482015274105a5c911c9bdc08185b1c9958591e48115b991959605a1b6044820152606401610583565b6000838152606d6020908152604080832080546001600160a01b038781166001600160a01b0319909216821790925585840151606c8552838620549092168552606f84529382902055805186815291820192909252338183015290517fdaed7fe6ee54468a612ace6d0a07ef93f42591bd958d0390bfc9a6e09e93ccc59181900360600190a1505050565b600054610100900460ff166116375760005460ff161561163b565b303b155b61169e5760405162461bcd60e51b815260206004820152602e60248201527f496e697469616c697a61626c653a20636f6e747261637420697320616c72656160448201526d191e481a5b9a5d1a585b1a5e995960921b6064820152608401610583565b600054610100900460ff161580156116c0576000805461ffff19166101011790555b6116c861183b565b6116d0611862565b6116d982611892565b80156116eb576000805461ff00191690555b5050565b6069546001600160a01b031633146117195760405162461bcd60e51b815260040161058390611c5c565b606855565b6033546001600160a01b031633146117785760405162461bcd60e51b815260206004820181905260248201527f4f776e61626c653a2063616c6c6572206973206e6f7420746865206f776e65726044820152606401610583565b6001600160a01b0381166117dd5760405162461bcd60e51b815260206004820152602660248201527f4f776e61626c653a206e6577206f776e657220697320746865207a65726f206160448201526564647265737360d01b6064820152608401610583565b6117e6816117e9565b50565b603380546001600160a01b038381166001600160a01b0319831681179093556040519116919082907f8be0079c531659141344cd1fd0a4f28419497f9722a3daafe3b4186f6b6457e090600090a35050565b600054610100900460ff166113665760405162461bcd60e51b815260040161058390611cc5565b600054610100900460ff166118895760405162461bcd60e51b815260040161058390611cc5565b611366336117e9565b600054610100900460ff166118b95760405162461bcd60e51b815260040161058390611cc5565b606980546001600160a01b0319166001600160a01b03929092169190911790556701e73bec5c0150006065556000606655600f606755600a606855565b6040805161014081018252600080825260208201819052909182019081526020016000815260200160008152602001600081526020016000815260200160006001600160a01b03168152602001600081526020016000600281111561196b57634e487b7160e01b600052602160045260246000fd5b905290565b80356001600160a01b038116811461198757600080fd5b919050565b60006020828403121561199d578081fd5b6119a682611970565b9392505050565b6000806000806000608086880312156119c4578081fd5b853567ffffffffffffffff808211156119db578283fd5b818801915088601f8301126119ee578283fd5b8135818111156119fc578384fd5b8960208260051b8501011115611a10578384fd5b602092830197509550611a269188019050611970565b94979396509394604081013594506060013592915050565b600060208284031215611a4f578081fd5b815180151581146119a6578182fd5b600060208284031215611a6f578081fd5b5035919050565b600060208284031215611a87578081fd5b5051919050565b60008060408385031215611aa0578182fd5b82359150611ab060208401611970565b90509250929050565b6000806000806000806000806000806101408b8d031215611ad8578485fd5b8a35995060208b01359850611aef60408c01611970565b975060608b0135611aff81611de5565b965060808b0135955060a08b01359450611b1b60c08c01611970565b935060e08b013592506101008b0135611b3381611de5565b809250506101208b013590509295989b9194979a5092959850565b611b5781611dc7565b9052565b80516001600160a01b03168252602081015160208301526040810151611b846040840182611b4e565b50606081015160608301526080810151608083015260a081015160a083015260c081015160c083015260e0810151611bc760e08401826001600160a01b03169052565b50610100818101519083015261012080820151611be682850182611b4e565b50505050565b6001600160a01b038b81168252602082018b9052610140820190611c0f8b611dc7565b8a60408401528960608401528860808401528760a08401528660c084015280861660e08401525083610100830152611c4683611dc7565b826101208301529b9a5050505050505050505050565b6020808252600c908201526b155b985d5d1a1bdc9a5e995960a21b604082015260600190565b60208082526023908201527f526563657069656e7420646f6573206e6f74205175616c69667920466f7220446040820152620726f760ec1b606082015260800190565b6020808252602b908201527f496e697469616c697a61626c653a20636f6e7472616374206973206e6f74206960408201526a6e697469616c697a696e6760a81b606082015260800190565b6101408101611d1f8284611b5b565b92915050565b6101808101611d348286611b5b565b6101408201939093526101600152919050565b60008219821115611d5a57611d5a611db1565b500190565b600082611d7a57634e487b7160e01b81526012600452602481fd5b500490565b600082821015611d9157611d91611db1565b500390565b6000600019821415611daa57611daa611db1565b5060010190565b634e487b7160e01b600052601160045260246000fd5b600381106117e657634e487b7160e01b600052602160045260246000fd5b600381106117e657600080fdfea2646970667358221220bdc51ca857fec153ee5c54043351b823679798fe234db460cc20a1e6a2cd548f64736f6c63430008040033",
  "linkReferences": {},
  "deployedLinkReferences": {}
}